{
  "contractName": "SparkNft",
  "abi": [
    {
      "inputs": [
        {
          "internalType": "string",
          "name": "_name",
          "type": "string"
        },
        {
          "internalType": "string",
          "name": "_symbol",
          "type": "string"
        },
        {
          "internalType": "uint256",
          "name": "maxSupply_",
          "type": "uint256"
        },
        {
          "internalType": "address",
          "name": "proxyRegistryAddress_",
          "type": "address"
        }
      ],
      "stateMutability": "nonpayable",
      "type": "constructor"
    },
    {
      "anonymous": false,
      "inputs": [
        {
          "indexed": true,
          "internalType": "address",
          "name": "owner",
          "type": "address"
        },
        {
          "indexed": true,
          "internalType": "address",
          "name": "approved",
          "type": "address"
        },
        {
          "indexed": true,
          "internalType": "uint256",
          "name": "tokenId",
          "type": "uint256"
        }
      ],
      "name": "Approval",
      "type": "event"
    },
    {
      "anonymous": false,
      "inputs": [
        {
          "indexed": true,
          "internalType": "address",
          "name": "owner",
          "type": "address"
        },
        {
          "indexed": true,
          "internalType": "address",
          "name": "operator",
          "type": "address"
        },
        {
          "indexed": false,
          "internalType": "bool",
          "name": "approved",
          "type": "bool"
        }
      ],
      "name": "ApprovalForAll",
      "type": "event"
    },
    {
      "anonymous": false,
      "inputs": [
        {
          "indexed": false,
          "internalType": "address",
          "name": "userAddress",
          "type": "address"
        },
        {
          "indexed": false,
          "internalType": "address payable",
          "name": "relayerAddress",
          "type": "address"
        },
        {
          "indexed": false,
          "internalType": "bytes",
          "name": "functionSignature",
          "type": "bytes"
        }
      ],
      "name": "MetaTransactionExecuted",
      "type": "event"
    },
    {
      "anonymous": false,
      "inputs": [
        {
          "indexed": true,
          "internalType": "address",
          "name": "previousOwner",
          "type": "address"
        },
        {
          "indexed": true,
          "internalType": "address",
          "name": "newOwner",
          "type": "address"
        }
      ],
      "name": "OwnershipTransferred",
      "type": "event"
    },
    {
      "anonymous": false,
      "inputs": [
        {
          "indexed": false,
          "internalType": "address",
          "name": "account",
          "type": "address"
        }
      ],
      "name": "Paused",
      "type": "event"
    },
    {
      "anonymous": false,
      "inputs": [
        {
          "indexed": true,
          "internalType": "address",
          "name": "from",
          "type": "address"
        },
        {
          "indexed": true,
          "internalType": "address",
          "name": "to",
          "type": "address"
        },
        {
          "indexed": true,
          "internalType": "uint256",
          "name": "tokenId",
          "type": "uint256"
        }
      ],
      "name": "Transfer",
      "type": "event"
    },
    {
      "anonymous": false,
      "inputs": [
        {
          "indexed": false,
          "internalType": "address",
          "name": "account",
          "type": "address"
        }
      ],
      "name": "Unpaused",
      "type": "event"
    },
    {
      "inputs": [],
      "name": "ERC712_VERSION",
      "outputs": [
        {
          "internalType": "string",
          "name": "",
          "type": "string"
        }
      ],
      "stateMutability": "view",
      "type": "function"
    },
    {
      "inputs": [
        {
          "internalType": "address",
          "name": "to",
          "type": "address"
        },
        {
          "internalType": "uint256",
          "name": "tokenId",
          "type": "uint256"
        }
      ],
      "name": "approve",
      "outputs": [],
      "stateMutability": "nonpayable",
      "type": "function"
    },
    {
      "inputs": [
        {
          "internalType": "address",
          "name": "owner",
          "type": "address"
        }
      ],
      "name": "balanceOf",
      "outputs": [
        {
          "internalType": "uint256",
          "name": "",
          "type": "uint256"
        }
      ],
      "stateMutability": "view",
      "type": "function"
    },
    {
      "inputs": [],
      "name": "baseTokenURI",
      "outputs": [
        {
          "internalType": "string",
          "name": "",
          "type": "string"
        }
      ],
      "stateMutability": "view",
      "type": "function"
    },
    {
      "inputs": [],
      "name": "baseURI",
      "outputs": [
        {
          "internalType": "string",
          "name": "",
          "type": "string"
        }
      ],
      "stateMutability": "view",
      "type": "function"
    },
    {
      "inputs": [
        {
          "internalType": "uint256",
          "name": "tokenId",
          "type": "uint256"
        }
      ],
      "name": "burn",
      "outputs": [],
      "stateMutability": "nonpayable",
      "type": "function"
    },
    {
      "inputs": [],
      "name": "contractURI",
      "outputs": [
        {
          "internalType": "string",
          "name": "",
          "type": "string"
        }
      ],
      "stateMutability": "view",
      "type": "function"
    },
    {
      "inputs": [
        {
          "internalType": "address",
          "name": "userAddress",
          "type": "address"
        },
        {
          "internalType": "bytes",
          "name": "functionSignature",
          "type": "bytes"
        },
        {
          "internalType": "bytes32",
          "name": "sigR",
          "type": "bytes32"
        },
        {
          "internalType": "bytes32",
          "name": "sigS",
          "type": "bytes32"
        },
        {
          "internalType": "uint8",
          "name": "sigV",
          "type": "uint8"
        }
      ],
      "name": "executeMetaTransaction",
      "outputs": [
        {
          "internalType": "bytes",
          "name": "",
          "type": "bytes"
        }
      ],
      "stateMutability": "payable",
      "type": "function"
    },
    {
      "inputs": [
        {
          "internalType": "uint256",
          "name": "tokenId",
          "type": "uint256"
        }
      ],
      "name": "getApproved",
      "outputs": [
        {
          "internalType": "address",
          "name": "",
          "type": "address"
        }
      ],
      "stateMutability": "view",
      "type": "function"
    },
    {
      "inputs": [],
      "name": "getChainId",
      "outputs": [
        {
          "internalType": "uint256",
          "name": "",
          "type": "uint256"
        }
      ],
      "stateMutability": "pure",
      "type": "function"
    },
    {
      "inputs": [],
      "name": "getDomainSeperator",
      "outputs": [
        {
          "internalType": "bytes32",
          "name": "",
          "type": "bytes32"
        }
      ],
      "stateMutability": "view",
      "type": "function"
    },
    {
      "inputs": [
        {
          "internalType": "address",
          "name": "user",
          "type": "address"
        }
      ],
      "name": "getNonce",
      "outputs": [
        {
          "internalType": "uint256",
          "name": "nonce",
          "type": "uint256"
        }
      ],
      "stateMutability": "view",
      "type": "function"
    },
    {
      "inputs": [],
      "name": "getProxyRegistryAddress",
      "outputs": [
        {
          "internalType": "address",
          "name": "",
          "type": "address"
        }
      ],
      "stateMutability": "view",
      "type": "function"
    },
    {
      "inputs": [
        {
          "internalType": "address",
          "name": "owner",
          "type": "address"
        },
        {
          "internalType": "address",
          "name": "operator",
          "type": "address"
        }
      ],
      "name": "isApprovedForAll",
      "outputs": [
        {
          "internalType": "bool",
          "name": "",
          "type": "bool"
        }
      ],
      "stateMutability": "view",
      "type": "function"
    },
    {
      "inputs": [],
      "name": "maxSupply",
      "outputs": [
        {
          "internalType": "uint256",
          "name": "",
          "type": "uint256"
        }
      ],
      "stateMutability": "view",
      "type": "function"
    },
    {
      "inputs": [
        {
          "internalType": "address",
          "name": "to_",
          "type": "address"
        },
        {
          "internalType": "string",
          "name": "metadataURI_",
          "type": "string"
        }
      ],
      "name": "mintTo",
      "outputs": [],
      "stateMutability": "nonpayable",
      "type": "function"
    },
    {
      "inputs": [
        {
          "internalType": "address",
          "name": "to_",
          "type": "address"
        }
      ],
      "name": "mintTo",
      "outputs": [],
      "stateMutability": "nonpayable",
      "type": "function"
    },
    {
      "inputs": [],
      "name": "name",
      "outputs": [
        {
          "internalType": "string",
          "name": "",
          "type": "string"
        }
      ],
      "stateMutability": "view",
      "type": "function"
    },
    {
      "inputs": [],
      "name": "owner",
      "outputs": [
        {
          "internalType": "address",
          "name": "",
          "type": "address"
        }
      ],
      "stateMutability": "view",
      "type": "function"
    },
    {
      "inputs": [
        {
          "internalType": "uint256",
          "name": "tokenId",
          "type": "uint256"
        }
      ],
      "name": "ownerOf",
      "outputs": [
        {
          "internalType": "address",
          "name": "",
          "type": "address"
        }
      ],
      "stateMutability": "view",
      "type": "function"
    },
    {
      "inputs": [],
      "name": "paused",
      "outputs": [
        {
          "internalType": "bool",
          "name": "",
          "type": "bool"
        }
      ],
      "stateMutability": "view",
      "type": "function"
    },
    {
      "inputs": [],
      "name": "renounceOwnership",
      "outputs": [],
      "stateMutability": "nonpayable",
      "type": "function"
    },
    {
      "inputs": [
        {
          "internalType": "address",
          "name": "from",
          "type": "address"
        },
        {
          "internalType": "address",
          "name": "to",
          "type": "address"
        },
        {
          "internalType": "uint256",
          "name": "tokenId",
          "type": "uint256"
        }
      ],
      "name": "safeTransferFrom",
      "outputs": [],
      "stateMutability": "nonpayable",
      "type": "function"
    },
    {
      "inputs": [
        {
          "internalType": "address",
          "name": "from",
          "type": "address"
        },
        {
          "internalType": "address",
          "name": "to",
          "type": "address"
        },
        {
          "internalType": "uint256",
          "name": "tokenId",
          "type": "uint256"
        },
        {
          "internalType": "bytes",
          "name": "_data",
          "type": "bytes"
        }
      ],
      "name": "safeTransferFrom",
      "outputs": [],
      "stateMutability": "nonpayable",
      "type": "function"
    },
    {
      "inputs": [
        {
          "internalType": "address",
          "name": "operator",
          "type": "address"
        },
        {
          "internalType": "bool",
          "name": "approved",
          "type": "bool"
        }
      ],
      "name": "setApprovalForAll",
      "outputs": [],
      "stateMutability": "nonpayable",
      "type": "function"
    },
    {
      "inputs": [
        {
          "internalType": "bytes4",
          "name": "interfaceId",
          "type": "bytes4"
        }
      ],
      "name": "supportsInterface",
      "outputs": [
        {
          "internalType": "bool",
          "name": "",
          "type": "bool"
        }
      ],
      "stateMutability": "view",
      "type": "function"
    },
    {
      "inputs": [],
      "name": "symbol",
      "outputs": [
        {
          "internalType": "string",
          "name": "",
          "type": "string"
        }
      ],
      "stateMutability": "view",
      "type": "function"
    },
    {
      "inputs": [
        {
          "internalType": "uint256",
          "name": "index",
          "type": "uint256"
        }
      ],
      "name": "tokenByIndex",
      "outputs": [
        {
          "internalType": "uint256",
          "name": "",
          "type": "uint256"
        }
      ],
      "stateMutability": "view",
      "type": "function"
    },
    {
      "inputs": [
        {
          "internalType": "address",
          "name": "owner",
          "type": "address"
        },
        {
          "internalType": "uint256",
          "name": "index",
          "type": "uint256"
        }
      ],
      "name": "tokenOfOwnerByIndex",
      "outputs": [
        {
          "internalType": "uint256",
          "name": "",
          "type": "uint256"
        }
      ],
      "stateMutability": "view",
      "type": "function"
    },
    {
      "inputs": [
        {
          "internalType": "uint256",
          "name": "tokenId",
          "type": "uint256"
        }
      ],
      "name": "tokenURI",
      "outputs": [
        {
          "internalType": "string",
          "name": "",
          "type": "string"
        }
      ],
      "stateMutability": "view",
      "type": "function"
    },
    {
      "inputs": [],
      "name": "totalSupply",
      "outputs": [
        {
          "internalType": "uint256",
          "name": "",
          "type": "uint256"
        }
      ],
      "stateMutability": "view",
      "type": "function"
    },
    {
      "inputs": [
        {
          "internalType": "address",
          "name": "from",
          "type": "address"
        },
        {
          "internalType": "address",
          "name": "to",
          "type": "address"
        },
        {
          "internalType": "uint256",
          "name": "tokenId",
          "type": "uint256"
        }
      ],
      "name": "transferFrom",
      "outputs": [],
      "stateMutability": "nonpayable",
      "type": "function"
    },
    {
      "inputs": [
        {
          "internalType": "address",
          "name": "newOwner",
          "type": "address"
        }
      ],
      "name": "transferOwnership",
      "outputs": [],
      "stateMutability": "nonpayable",
      "type": "function"
    },
    {
      "inputs": [
        {
          "internalType": "address",
          "name": "proxyRegistryAddress_",
          "type": "address"
        }
      ],
      "name": "setProxyRegistryAddress",
      "outputs": [],
      "stateMutability": "nonpayable",
      "type": "function"
    },
    {
      "inputs": [
        {
          "internalType": "string",
          "name": "baseURI_",
          "type": "string"
        }
      ],
      "name": "setBaseURI",
      "outputs": [],
      "stateMutability": "nonpayable",
      "type": "function"
    },
    {
      "inputs": [
        {
          "internalType": "string",
          "name": "contractURI_",
          "type": "string"
        }
      ],
      "name": "setContractURI",
      "outputs": [],
      "stateMutability": "nonpayable",
      "type": "function"
    },
    {
      "inputs": [],
      "name": "pause",
      "outputs": [],
      "stateMutability": "nonpayable",
      "type": "function"
    },
    {
      "inputs": [],
      "name": "unpause",
      "outputs": [],
      "stateMutability": "nonpayable",
      "type": "function"
    }
  ],
  "bytecode": "0x60806040526000805460ff191681556010553480156200001e57600080fd5b5060405162003f7238038062003f72833981810160405260808110156200004457600080fd5b81019080805160405193929190846401000000008211156200006557600080fd5b9083019060208201858111156200007b57600080fd5b82516401000000008111828201881017156200009657600080fd5b82525081516020918201929091019080838360005b83811015620000c5578181015183820152602001620000ab565b50505050905090810190601f168015620000f35780820380516001836020036101000a031916815260200191505b50604052602001805160405193929190846401000000008211156200011757600080fd5b9083019060208201858111156200012d57600080fd5b82516401000000008111828201881017156200014857600080fd5b82525081516020918201929091019080838360005b83811015620001775781810151838201526020016200015d565b50505050905090810190601f168015620001a55780820380516001836020036101000a031916815260200191505b50604090815260208201519101519092509050838383838383620001d06301ffc9a760e01b6200030d565b8151620001e59060089060208501906200058b565b508051620001fb9060099060208401906200058b565b506200020e6380ac58cd60e01b6200030d565b62000220635b5e139f60e01b6200030d565b6200023263780e9d6360e01b6200030d565b50600090506200024162000392565b600d80546001600160a01b0319166001600160a01b038316908117909155604051919250906000907f8be0079c531659141344cd1fd0a4f28419497f9722a3daafe3b4186f6b6457e0908290a350600d805460ff60a01b191690556011829055620002ac81620003af565b620002b784620003d1565b50505050620002df60405180606001604052806022815260200162003f506022913962000436565b6200030360405180606001604052806022815260200162003f50602291396200044f565b5050505062000637565b6001600160e01b031980821614156200036d576040805162461bcd60e51b815260206004820152601c60248201527f4552433136353a20696e76616c696420696e7465726661636520696400000000604482015290519081900360640190fd5b6001600160e01b0319166000908152600260205260409020805460ff19166001179055565b6000620003a96200046460201b620020341760201c565b90505b90565b600f80546001600160a01b0319166001600160a01b0392909216919091179055565b60005460ff16156200041b576040805162461bcd60e51b815260206004820152600e60248201526d185b1c9958591e481a5b9a5d195960921b604482015290519081900360640190fd5b6200042681620004c2565b506000805460ff19166001179055565b80516200044b90600e9060208401906200058b565b5050565b80516200044b90600b9060208401906200058b565b600033301415620004bd57600080368080601f0160208091040260200160405190810160405280939291908181526020018383808284376000920191909152505050503601516001600160a01b03169150620003ac9050565b503390565b6040518060800160405280604f815260200162003f01604f913980516020918201208251838301206040805180820190915260018152603160f81b930192909252907fc89efdaa54c0f20c7adf612882df0950f5a951637e0307cdcb4c672f298b8bc6306200053062000587565b60001b60405160200180868152602001858152602001848152602001836001600160a01b03168152602001828152602001955050505050506040516020818303038152906040528051906020012060018190555050565b4690565b828054600181600116156101000203166002900490600052602060002090601f016020900481019282620005c357600085556200060e565b82601f10620005de57805160ff19168380011785556200060e565b828001600101855582156200060e579182015b828111156200060e578251825591602001919060010190620005f1565b506200061c92915062000620565b5090565b5b808211156200061c576000815560010162000621565b6138ba80620006476000396000f3fe6080604052600436106102845760003560e01c80635c975abb1161015357806395d89b41116100cb578063d547cfb71161007f578063e8a3d48511610064578063e8a3d48514610b5a578063e985e9c514610b6f578063f2fde38b14610baa57610284565b8063d547cfb714610b30578063d5abeb0114610b4557610284565b8063b88d4fde116100b0578063b88d4fde14610a00578063c87b56dd14610ad3578063d26ea6c014610afd57610284565b806395d89b41146109b0578063a22cb465146109c557610284565b8063715018a6116101225780638456cb59116101075780638456cb59146108d35780638da5cb5b146108e8578063938e3d7b146108fd57610284565b8063715018a61461088b578063755edd17146108a057610284565b80635c975abb146108045780636352211e146108195780636c0360eb1461084357806370a082311461085857610284565b806320379ee5116102015780633f4ba83a116101b557806342966c681161019a57806342966c68146106fd5780634f6ccce71461072757806355f804b31461075157610284565b80633f4ba83a146106a557806342842e0e146106ba57610284565b80632d0335ab116101e65780632d0335ab146106245780632f745c59146106575780633408e4701461069057610284565b806320379ee5146105cc57806323b872dd146105e157610284565b8063095ea7b3116102585780630f7e59701161023d5780630f7e59701461057b57806318160ddd146105905780631fe5b457146105b757610284565b8063095ea7b31461047e5780630c53c51c146104b757610284565b806275a3171461028957806301ffc9a71461034e57806306fdde03146103ae578063081812fc14610438575b600080fd5b34801561029557600080fd5b5061034c600480360360408110156102ac57600080fd5b6001600160a01b0382351691908101906040810160208201356401000000008111156102d757600080fd5b8201836020820111156102e957600080fd5b8035906020019184600183028401116401000000008311171561030b57600080fd5b91908080601f016020809104026020016040519081016040528093929190818152602001838380828437600092019190915250929550610bdd945050505050565b005b34801561035a57600080fd5b5061039a6004803603602081101561037157600080fd5b50357fffffffff0000000000000000000000000000000000000000000000000000000016610cd6565b604080519115158252519081900360200190f35b3480156103ba57600080fd5b506103c3610d11565b6040805160208082528351818301528351919283929083019185019080838360005b838110156103fd5781810151838201526020016103e5565b50505050905090810190601f16801561042a5780820380516001836020036101000a031916815260200191505b509250505060405180910390f35b34801561044457600080fd5b506104626004803603602081101561045b57600080fd5b5035610da8565b604080516001600160a01b039092168252519081900360200190f35b34801561048a57600080fd5b5061034c600480360360408110156104a157600080fd5b506001600160a01b038135169060200135610e0a565b6103c3600480360360a08110156104cd57600080fd5b6001600160a01b0382351691908101906040810160208201356401000000008111156104f857600080fd5b82018360208201111561050a57600080fd5b8035906020019184600183028401116401000000008311171561052c57600080fd5b91908080601f016020809104026020016040519081016040528093929190818152602001838380828437600092019190915250929550508235935050506020810135906040013560ff16610ee0565b34801561058757600080fd5b506103c361121e565b34801561059c57600080fd5b506105a5611257565b60408051918252519081900360200190f35b3480156105c357600080fd5b50610462611268565b3480156105d857600080fd5b506105a5611277565b3480156105ed57600080fd5b5061034c6004803603606081101561060457600080fd5b506001600160a01b0381358116916020810135909116906040013561127d565b34801561063057600080fd5b506105a56004803603602081101561064757600080fd5b50356001600160a01b03166112d4565b34801561066357600080fd5b506105a56004803603604081101561067a57600080fd5b506001600160a01b0381351690602001356112ef565b34801561069c57600080fd5b506105a561131a565b3480156106b157600080fd5b5061034c61131e565b3480156106c657600080fd5b5061034c600480360360608110156106dd57600080fd5b506001600160a01b0381358116916020810135909116906040013561139c565b34801561070957600080fd5b5061034c6004803603602081101561072057600080fd5b50356113b7565b34801561073357600080fd5b506105a56004803603602081101561074a57600080fd5b5035611409565b34801561075d57600080fd5b5061034c6004803603602081101561077457600080fd5b81019060208101813564010000000081111561078f57600080fd5b8201836020820111156107a157600080fd5b803590602001918460018302840111640100000000831117156107c357600080fd5b91908080601f01602080910402602001604051908101604052809392919081815260200183838082843760009201919091525092955061141f945050505050565b34801561081057600080fd5b5061039a61149c565b34801561082557600080fd5b506104626004803603602081101561083c57600080fd5b50356114bd565b34801561084f57600080fd5b506103c36114e5565b34801561086457600080fd5b506105a56004803603602081101561087b57600080fd5b50356001600160a01b0316611546565b34801561089757600080fd5b5061034c6115ae565b3480156108ac57600080fd5b5061034c600480360360208110156108c357600080fd5b50356001600160a01b0316611684565b3480156108df57600080fd5b5061034c611772565b3480156108f457600080fd5b506104626117ee565b34801561090957600080fd5b5061034c6004803603602081101561092057600080fd5b81019060208101813564010000000081111561093b57600080fd5b82018360208201111561094d57600080fd5b8035906020019184600183028401116401000000008311171561096f57600080fd5b91908080601f0160208091040260200160405190810160405280939291908181526020018383808284376000920191909152509295506117fd945050505050565b3480156109bc57600080fd5b506103c361187a565b3480156109d157600080fd5b5061034c600480360360408110156109e857600080fd5b506001600160a01b03813516906020013515156118db565b348015610a0c57600080fd5b5061034c60048036036080811015610a2357600080fd5b6001600160a01b03823581169260208101359091169160408201359190810190608081016060820135640100000000811115610a5e57600080fd5b820183602082011115610a7057600080fd5b80359060200191846001830284011164010000000083111715610a9257600080fd5b91908080601f0160208091040260200160405190810160405280939291908181526020018383808284376000920191909152509295506119fe945050505050565b348015610adf57600080fd5b506103c360048036036020811015610af657600080fd5b5035611a5c565b348015610b0957600080fd5b5061034c60048036036020811015610b2057600080fd5b50356001600160a01b0316611d55565b348015610b3c57600080fd5b506103c3611dd2565b348015610b5157600080fd5b506105a5611ddc565b348015610b6657600080fd5b506103c3611de2565b348015610b7b57600080fd5b5061039a60048036036040811015610b9257600080fd5b506001600160a01b0381358116916020013516611e43565b348015610bb657600080fd5b5061034c60048036036020811015610bcd57600080fd5b50356001600160a01b0316611f07565b610be5612090565b6001600160a01b0316610bf66117ee565b6001600160a01b031614610c51576040805162461bcd60e51b815260206004820181905260248201527f4f776e61626c653a2063616c6c6572206973206e6f7420746865206f776e6572604482015290519081900360640190fd5b60115460105410610ca9576040805162461bcd60e51b815260206004820152601860248201527f4d617820746f6b656e20737570706c7920726561636865640000000000000000604482015290519081900360640190fd5b6000610cb361209a565b9050610cbf83826120ab565b610cc981836120c5565b610cd1612128565b505050565b7fffffffff00000000000000000000000000000000000000000000000000000000811660009081526002602052604090205460ff165b919050565b60088054604080516020601f6002600019610100600188161502019095169490940493840181900481028201810190925282815260609390929091830182828015610d9d5780601f10610d7257610100808354040283529160200191610d9d565b820191906000526020600020905b815481529060010190602001808311610d8057829003601f168201915b505050505090505b90565b6000610db382612133565b610dee5760405162461bcd60e51b815260040180806020018281038252602c815260200180613732602c913960400191505060405180910390fd5b506000908152600660205260409020546001600160a01b031690565b6000610e15826114bd565b9050806001600160a01b0316836001600160a01b03161415610e685760405162461bcd60e51b81526004018080602001828103825260218152602001806138036021913960400191505060405180910390fd5b806001600160a01b0316610e7a612090565b6001600160a01b03161480610e9b5750610e9b81610e96612090565b612140565b610ed65760405162461bcd60e51b81526004018080602001828103825260388152602001806136856038913960400191505060405180910390fd5b610cd1838361216e565b60408051606081810183526001600160a01b0388166000818152600c602090815290859020548452830152918101869052610f1e87828787876121f4565b610f595760405162461bcd60e51b81526004018080602001828103825260218152602001806137b36021913960400191505060405180910390fd5b6001600160a01b0387166000908152600c6020526040902054610f7d9060016122ce565b600c6000896001600160a01b03166001600160a01b03168152602001908152602001600020819055507f5845892132946850460bff5a0083f71031bc5bf9aadcd40f1de79423eac9b10b87338860405180846001600160a01b03168152602001836001600160a01b0316815260200180602001828103825283818151815260200191508051906020019080838360005b8381101561102557818101518382015260200161100d565b50505050905090810190601f1680156110525780820380516001836020036101000a031916815260200191505b5094505050505060405180910390a1600080306001600160a01b0316888a6040516020018083805190602001908083835b602083106110c057805182527fffffffffffffffffffffffffffffffffffffffffffffffffffffffffffffffe09092019160209182019101611083565b6001836020036101000a038019825116818451168082178552505050505050905001826001600160a01b031660601b8152601401925050506040516020818303038152906040526040518082805190602001908083835b6020831061115457805182527fffffffffffffffffffffffffffffffffffffffffffffffffffffffffffffffe09092019160209182019101611117565b6001836020036101000a0380198251168184511680821785525050505050509050019150506000604051808303816000865af19150503d80600081146111b6576040519150601f19603f3d011682016040523d82523d6000602084013e6111bb565b606091505b509150915081611212576040805162461bcd60e51b815260206004820152601c60248201527f46756e6374696f6e2063616c6c206e6f74207375636365737366756c00000000604482015290519081900360640190fd5b98975050505050505050565b6040518060400160405280600181526020017f310000000000000000000000000000000000000000000000000000000000000081525081565b60006112636004612328565b905090565b600f546001600160a01b031690565b60015490565b61128e611288612090565b82612333565b6112c95760405162461bcd60e51b81526004018080602001828103825260318152602001806138246031913960400191505060405180910390fd5b610cd18383836123cf565b6001600160a01b03166000908152600c602052604090205490565b6001600160a01b0382166000908152600360205260408120611311908361251b565b90505b92915050565b4690565b611326612090565b6001600160a01b03166113376117ee565b6001600160a01b031614611392576040805162461bcd60e51b815260206004820181905260248201527f4f776e61626c653a2063616c6c6572206973206e6f7420746865206f776e6572604482015290519081900360640190fd5b61139a612527565b565b610cd1838383604051806020016040528060008152506119fe565b6113c2611288612090565b6113fd5760405162461bcd60e51b81526004018080602001828103825260308152602001806138556030913960400191505060405180910390fd5b611406816125ee565b50565b6000806114176004846126bb565b509392505050565b611427612090565b6001600160a01b03166114386117ee565b6001600160a01b031614611493576040805162461bcd60e51b815260206004820181905260248201527f4f776e61626c653a2063616c6c6572206973206e6f7420746865206f776e6572604482015290519081900360640190fd5b611406816126d7565b600d5474010000000000000000000000000000000000000000900460ff1690565b6000611314826040518060600160405280602981526020016136e760299139600491906126ea565b600b8054604080516020601f6002600019610100600188161502019095169490940493840181900481028201810190925282815260609390929091830182828015610d9d5780601f10610d7257610100808354040283529160200191610d9d565b60006001600160a01b03821661158d5760405162461bcd60e51b815260040180806020018281038252602a8152602001806136bd602a913960400191505060405180910390fd5b6001600160a01b038216600090815260036020526040902061131490612328565b6115b6612090565b6001600160a01b03166115c76117ee565b6001600160a01b031614611622576040805162461bcd60e51b815260206004820181905260248201527f4f776e61626c653a2063616c6c6572206973206e6f7420746865206f776e6572604482015290519081900360640190fd5b600d546040516000916001600160a01b0316907f8be0079c531659141344cd1fd0a4f28419497f9722a3daafe3b4186f6b6457e0908390a3600d80547fffffffffffffffffffffffff0000000000000000000000000000000000000000169055565b61168c612090565b6001600160a01b031661169d6117ee565b6001600160a01b0316146116f8576040805162461bcd60e51b815260206004820181905260248201527f4f776e61626c653a2063616c6c6572206973206e6f7420746865206f776e6572604482015290519081900360640190fd5b60115460105410611750576040805162461bcd60e51b815260206004820152601860248201527f4d617820746f6b656e20737570706c7920726561636865640000000000000000604482015290519081900360640190fd5b600061175a61209a565b905061176682826120ab565b61176e612128565b5050565b61177a612090565b6001600160a01b031661178b6117ee565b6001600160a01b0316146117e6576040805162461bcd60e51b815260206004820181905260248201527f4f776e61626c653a2063616c6c6572206973206e6f7420746865206f776e6572604482015290519081900360640190fd5b61139a612701565b600d546001600160a01b031690565b611805612090565b6001600160a01b03166118166117ee565b6001600160a01b031614611871576040805162461bcd60e51b815260206004820181905260248201527f4f776e61626c653a2063616c6c6572206973206e6f7420746865206f776e6572604482015290519081900360640190fd5b611406816127c3565b60098054604080516020601f6002600019610100600188161502019095169490940493840181900481028201810190925282815260609390929091830182828015610d9d5780601f10610d7257610100808354040283529160200191610d9d565b6118e3612090565b6001600160a01b0316826001600160a01b03161415611949576040805162461bcd60e51b815260206004820152601960248201527f4552433732313a20617070726f766520746f2063616c6c657200000000000000604482015290519081900360640190fd5b8060076000611956612090565b6001600160a01b0390811682526020808301939093526040918201600090812091871680825291909352912080547fffffffffffffffffffffffffffffffffffffffffffffffffffffffffffffff0016921515929092179091556119b8612090565b6001600160a01b03167f17307eab39ab6107e8899845ad3d59bd9653f200f220920489ca2b5937696c318360405180821515815260200191505060405180910390a35050565b611a0f611a09612090565b83612333565b611a4a5760405162461bcd60e51b81526004018080602001828103825260318152602001806138246031913960400191505060405180910390fd5b611a56848484846127d6565b50505050565b6060611a6782612133565b611aa25760405162461bcd60e51b815260040180806020018281038252602f8152602001806137d4602f913960400191505060405180910390fd5b6000828152600a602090815260408083208054825160026001831615610100026000190190921691909104601f810185900485028201850190935282815292909190830182828015611b355780601f10611b0a57610100808354040283529160200191611b35565b820191906000526020600020905b815481529060010190602001808311611b1857829003601f168201915b505050505090506000611b466114e5565b9050805160001415611b5a57509050610d0c565b815115611c575780826040516020018083805190602001908083835b60208310611bb357805182527fffffffffffffffffffffffffffffffffffffffffffffffffffffffffffffffe09092019160209182019101611b76565b51815160209384036101000a600019018019909216911617905285519190930192850191508083835b60208310611c1957805182527fffffffffffffffffffffffffffffffffffffffffffffffffffffffffffffffe09092019160209182019101611bdc565b6001836020036101000a0380198251168184511680821785525050505050509050019250505060405160208183030381529060405292505050610d0c565b80611c6185612828565b6040516020018083805190602001908083835b60208310611cb157805182527fffffffffffffffffffffffffffffffffffffffffffffffffffffffffffffffe09092019160209182019101611c74565b51815160209384036101000a600019018019909216911617905285519190930192850191508083835b60208310611d1757805182527fffffffffffffffffffffffffffffffffffffffffffffffffffffffffffffffe09092019160209182019101611cda565b6001836020036101000a0380198251168184511680821785525050505050509050019250505060405160208183030381529060405292505050919050565b611d5d612090565b6001600160a01b0316611d6e6117ee565b6001600160a01b031614611dc9576040805162461bcd60e51b815260206004820181905260248201527f4f776e61626c653a2063616c6c6572206973206e6f7420746865206f776e6572604482015290519081900360640190fd5b61140681612937565b60606112636114e5565b60115490565b600e8054604080516020601f6002600019610100600188161502019095169490940493840181900481028201810190925282815260609390929091830182828015610d9d5780601f10610d7257610100808354040283529160200191610d9d565b600f54604080517fc45527910000000000000000000000000000000000000000000000000000000081526001600160a01b0385811660048301529151600093831692851691839163c455279191602480820192602092909190829003018186803b158015611eb057600080fd5b505afa158015611ec4573d6000803e3d6000fd5b505050506040513d6020811015611eda57600080fd5b50516001600160a01b03161415611ef5576001915050611314565b611eff8484612140565b949350505050565b611f0f612090565b6001600160a01b0316611f206117ee565b6001600160a01b031614611f7b576040805162461bcd60e51b815260206004820181905260248201527f4f776e61626c653a2063616c6c6572206973206e6f7420746865206f776e6572604482015290519081900360640190fd5b6001600160a01b038116611fc05760405162461bcd60e51b81526004018080602001828103825260268152602001806135ea6026913960400191505060405180910390fd5b600d546040516001600160a01b038084169216907f8be0079c531659141344cd1fd0a4f28419497f9722a3daafe3b4186f6b6457e090600090a3600d80547fffffffffffffffffffffffff0000000000000000000000000000000000000000166001600160a01b0392909216919091179055565b60003330141561208b57600080368080601f0160208091040260200160405190810160405280939291908181526020018383808284376000920191909152505050503601516001600160a01b03169150610da59050565b503390565b6000611263612034565b6010546000906112639060016122ce565b61176e828260405180602001604052806000815250612971565b6120ce82612133565b6121095760405162461bcd60e51b815260040180806020018281038252602c81526020018061375e602c913960400191505060405180910390fd5b6000828152600a602090815260409091208251610cd192840190613446565b601080546001019055565b60006113146004836129c3565b6001600160a01b03918216600090815260076020908152604080832093909416825291909152205460ff1690565b600081815260066020526040902080547fffffffffffffffffffffffff0000000000000000000000000000000000000000166001600160a01b03841690811790915581906121bb826114bd565b6001600160a01b03167f8c5be1e5ebec7d5bd14f71427d1e84f3dd0314c0f7b2291e5b200ac8c7c3b92560405160405180910390a45050565b60006001600160a01b03861661223b5760405162461bcd60e51b81526004018080602001828103825260258152602001806136606025913960400191505060405180910390fd5b600161224e612249876129cf565b612a52565b83868660405160008152602001604052604051808581526020018460ff1681526020018381526020018281526020019450505050506020604051602081039080840390855afa1580156122a5573d6000803e3d6000fd5b505050602060405103516001600160a01b0316866001600160a01b031614905095945050505050565b600082820183811015611311576040805162461bcd60e51b815260206004820152601b60248201527f536166654d6174683a206164646974696f6e206f766572666c6f770000000000604482015290519081900360640190fd5b600061131482612ab9565b600061233e82612133565b6123795760405162461bcd60e51b815260040180806020018281038252602c815260200180613634602c913960400191505060405180910390fd5b6000612384836114bd565b9050806001600160a01b0316846001600160a01b031614806123bf5750836001600160a01b03166123b484610da8565b6001600160a01b0316145b80611eff5750611eff8185612140565b826001600160a01b03166123e2826114bd565b6001600160a01b0316146124275760405162461bcd60e51b815260040180806020018281038252602981526020018061378a6029913960400191505060405180910390fd5b6001600160a01b03821661246c5760405162461bcd60e51b81526004018080602001828103825260248152602001806136106024913960400191505060405180910390fd5b612477838383612abd565b61248260008261216e565b6001600160a01b03831660009081526003602052604090206124a49082612ac8565b506001600160a01b03821660009081526003602052604090206124c79082612ad4565b506124d460048284612ae0565b5080826001600160a01b0316846001600160a01b03167fddf252ad1be2c89b69c2b068fc378daa952ba7f163c4a11628f55a4df523b3ef60405160405180910390a4505050565b60006113118383612af6565b61252f61149c565b612580576040805162461bcd60e51b815260206004820152601460248201527f5061757361626c653a206e6f7420706175736564000000000000000000000000604482015290519081900360640190fd5b600d80547fffffffffffffffffffffff00ffffffffffffffffffffffffffffffffffffffff1690557f5db9ee0a495bf2e6ff9c91a7834c1ba4fdd244a5e8aa4e537bd38aeae4b073aa6125d1612090565b604080516001600160a01b039092168252519081900360200190a1565b60006125f9826114bd565b905061260781600084612abd565b61261260008361216e565b6000828152600a60205260409020546002600019610100600184161502019091160415612650576000828152600a60205260408120612650916134d2565b6001600160a01b03811660009081526003602052604090206126729083612ac8565b5061267e600483612b5a565b5060405182906000906001600160a01b038416907fddf252ad1be2c89b69c2b068fc378daa952ba7f163c4a11628f55a4df523b3ef908390a45050565b60008080806126ca8686612b66565b9097909650945050505050565b805161176e90600b906020840190613446565b60006126f7848484612be1565b90505b9392505050565b61270961149c565b1561275b576040805162461bcd60e51b815260206004820152601060248201527f5061757361626c653a2070617573656400000000000000000000000000000000604482015290519081900360640190fd5b600d80547fffffffffffffffffffffff00ffffffffffffffffffffffffffffffffffffffff16740100000000000000000000000000000000000000001790557f62e78cea01bee320cd4e420270b5ea74000d11b0c9f74754ebdbfc544b05a2586125d1612090565b805161176e90600e906020840190613446565b6127e18484846123cf565b6127ed84848484612cab565b611a565760405162461bcd60e51b81526004018080602001828103825260328152602001806135756032913960400191505060405180910390fd5b606081612869575060408051808201909152600181527f30000000000000000000000000000000000000000000000000000000000000006020820152610d0c565b8160005b811561288157600101600a8204915061286d565b60008167ffffffffffffffff8111801561289a57600080fd5b506040519080825280601f01601f1916602001820160405280156128c5576020820181803683370190505b50859350905060001982015b831561292e57600a840660300160f81b828280600190039350815181106128f457fe5b60200101907effffffffffffffffffffffffffffffffffffffffffffffffffffffffffffff1916908160001a905350600a840493506128d1565b50949350505050565b600f80547fffffffffffffffffffffffff0000000000000000000000000000000000000000166001600160a01b0392909216919091179055565b61297b8383612e87565b6129886000848484612cab565b610cd15760405162461bcd60e51b81526004018080602001828103825260328152602001806135756032913960400191505060405180910390fd5b60006113118383612fb5565b60006040518060800160405280604381526020016135a760439139805190602001208260000151836020015184604001518051906020012060405160200180858152602001848152602001836001600160a01b03168152602001828152602001945050505050604051602081830303815290604052805190602001209050919050565b6000612a5c611277565b8260405160200180807f190100000000000000000000000000000000000000000000000000000000000081525060020183815260200182815260200192505050604051602081830303815290604052805190602001209050919050565b5490565b610cd1838383612fcd565b6000611311838361301c565b600061131183836130e2565b60006126f784846001600160a01b03851661312c565b81546000908210612b385760405162461bcd60e51b81526004018080602001828103825260228152602001806135286022913960400191505060405180910390fd5b826000018281548110612b4757fe5b9060005260206000200154905092915050565b600061131183836131c3565b815460009081908310612baa5760405162461bcd60e51b81526004018080602001828103825260228152602001806137106022913960400191505060405180910390fd5b6000846000018481548110612bbb57fe5b906000526020600020906002020190508060000154816001015492509250509250929050565b60008281526001840160205260408120548281612c7c5760405162461bcd60e51b81526004018080602001828103825283818151815260200191508051906020019080838360005b83811015612c41578181015183820152602001612c29565b50505050905090810190601f168015612c6e5780820380516001836020036101000a031916815260200191505b509250505060405180910390fd5b50846000016001820381548110612c8f57fe5b9060005260206000209060020201600101549150509392505050565b6000612cbf846001600160a01b0316613297565b612ccb57506001611eff565b6000612e1c7f150b7a0200000000000000000000000000000000000000000000000000000000612cf9612090565b88878760405160240180856001600160a01b03168152602001846001600160a01b0316815260200183815260200180602001828103825283818151815260200191508051906020019080838360005b83811015612d60578181015183820152602001612d48565b50505050905090810190601f168015612d8d5780820380516001836020036101000a031916815260200191505b5095505050505050604051602081830303815290604052907bffffffffffffffffffffffffffffffffffffffffffffffffffffffff19166020820180517bffffffffffffffffffffffffffffffffffffffffffffffffffffffff8381831617835250505050604051806060016040528060328152602001613575603291396001600160a01b038816919061329d565b90506000818060200190516020811015612e3557600080fd5b50517fffffffff00000000000000000000000000000000000000000000000000000000167f150b7a02000000000000000000000000000000000000000000000000000000001492505050949350505050565b6001600160a01b038216612ee2576040805162461bcd60e51b815260206004820181905260248201527f4552433732313a206d696e7420746f20746865207a65726f2061646472657373604482015290519081900360640190fd5b612eeb81612133565b15612f3d576040805162461bcd60e51b815260206004820152601c60248201527f4552433732313a20746f6b656e20616c7265616479206d696e74656400000000604482015290519081900360640190fd5b612f4960008383612abd565b6001600160a01b0382166000908152600360205260409020612f6b9082612ad4565b50612f7860048284612ae0565b5060405181906001600160a01b038416906000907fddf252ad1be2c89b69c2b068fc378daa952ba7f163c4a11628f55a4df523b3ef908290a45050565b60009081526001919091016020526040902054151590565b612fd8838383610cd1565b612fe061149c565b15610cd15760405162461bcd60e51b815260040180806020018281038252602b81526020018061354a602b913960400191505060405180910390fd5b600081815260018301602052604081205480156130d8578354600019808301919081019060009087908390811061304f57fe5b906000526020600020015490508087600001848154811061306c57fe5b60009182526020808320909101929092558281526001898101909252604090209084019055865487908061309c57fe5b60019003818190600052602060002001600090559055866001016000878152602001908152602001600020600090556001945050505050611314565b6000915050611314565b60006130ee8383612fb5565b61312457508154600181810184556000848152602080822090930184905584548482528286019093526040902091909155611314565b506000611314565b6000828152600184016020526040812054806131915750506040805180820182528381526020808201848152865460018181018955600089815284812095516002909302909501918255915190820155865486845281880190925292909120556126fa565b828560000160018303815481106131a457fe5b90600052602060002090600202016001018190555060009150506126fa565b600081815260018301602052604081205480156130d857835460001980830191908101906000908790839081106131f657fe5b906000526020600020906002020190508087600001848154811061321657fe5b60009182526020808320845460029093020191825560019384015491840191909155835482528983019052604090209084019055865487908061325557fe5b60008281526020808220600260001990940193840201828155600190810183905592909355888152898201909252604082209190915594506113149350505050565b3b151590565b60606126f78484600085856132b185613297565b613302576040805162461bcd60e51b815260206004820152601d60248201527f416464726573733a2063616c6c20746f206e6f6e2d636f6e7472616374000000604482015290519081900360640190fd5b600080866001600160a01b031685876040518082805190602001908083835b6020831061335e57805182527fffffffffffffffffffffffffffffffffffffffffffffffffffffffffffffffe09092019160209182019101613321565b6001836020036101000a03801982511681845116808217855250505050505090500191505060006040518083038185875af1925050503d80600081146133c0576040519150601f19603f3d011682016040523d82523d6000602084013e6133c5565b606091505b50915091506133d58282866133e0565b979650505050505050565b606083156133ef5750816126fa565b8251156133ff5782518084602001fd5b60405162461bcd60e51b8152602060048201818152845160248401528451859391928392604401919085019080838360008315612c41578181015183820152602001612c29565b828054600181600116156101000203166002900490600052602060002090601f01602090048101928261347c57600085556134c2565b82601f1061349557805160ff19168380011785556134c2565b828001600101855582156134c2579182015b828111156134c25782518255916020019190600101906134a7565b506134ce929150613512565b5090565b50805460018160011615610100020316600290046000825580601f106134f85750611406565b601f01602090049060005260206000209081019061140691905b5b808211156134ce576000815560010161351356fe456e756d657261626c655365743a20696e646578206f7574206f6620626f756e64734552433732315061757361626c653a20746f6b656e207472616e73666572207768696c65207061757365644552433732313a207472616e7366657220746f206e6f6e20455243373231526563656976657220696d706c656d656e7465724d6574615472616e73616374696f6e2875696e74323536206e6f6e63652c616464726573732066726f6d2c62797465732066756e6374696f6e5369676e6174757265294f776e61626c653a206e6577206f776e657220697320746865207a65726f20616464726573734552433732313a207472616e7366657220746f20746865207a65726f20616464726573734552433732313a206f70657261746f7220717565727920666f72206e6f6e6578697374656e7420746f6b656e4e61746976654d6574615472616e73616374696f6e3a20494e56414c49445f5349474e45524552433732313a20617070726f76652063616c6c6572206973206e6f74206f776e6572206e6f7220617070726f76656420666f7220616c6c4552433732313a2062616c616e636520717565727920666f7220746865207a65726f20616464726573734552433732313a206f776e657220717565727920666f72206e6f6e6578697374656e7420746f6b656e456e756d657261626c654d61703a20696e646578206f7574206f6620626f756e64734552433732313a20617070726f76656420717565727920666f72206e6f6e6578697374656e7420746f6b656e4552433732314d657461646174613a2055524920736574206f66206e6f6e6578697374656e7420746f6b656e4552433732313a207472616e73666572206f6620746f6b656e2074686174206973206e6f74206f776e5369676e657220616e64207369676e617475726520646f206e6f74206d617463684552433732314d657461646174613a2055524920717565727920666f72206e6f6e6578697374656e7420746f6b656e4552433732313a20617070726f76616c20746f2063757272656e74206f776e65724552433732313a207472616e736665722063616c6c6572206973206e6f74206f776e6572206e6f7220617070726f7665644552433732314275726e61626c653a2063616c6c6572206973206e6f74206f776e6572206e6f7220617070726f766564a2646970667358221220adb590bd6a12e0d89a3d2c5d9093a934990574c43a555e6c68512f1e3e67704364736f6c63430007060033454950373132446f6d61696e28737472696e67206e616d652c737472696e672076657273696f6e2c6164647265737320766572696679696e67436f6e74726163742c627974657333322073616c742968747470733a2f2f676174657761792e70696e6174612e636c6f75642f697066732f",
  "immutableReferences": {},
  "source": "// SPDX-License-Identifier: MIT\r\npragma solidity ^0.7.0;\r\n\r\nimport \"./ERC721TradableMultiple.sol\";\r\n\r\n/**\r\n * @title SparkNft\r\n * SparkNft - a NFT type contract for Slovenian NFT cards.\r\n */\r\ncontract SparkNft is ERC721TradableMultiple {\r\n  constructor(\r\n    string memory _name,\r\n    string memory _symbol,\r\n    uint256 maxSupply_,\r\n    address proxyRegistryAddress_\r\n  ) ERC721TradableMultiple(_name, _symbol, maxSupply_, proxyRegistryAddress_) {\r\n    _setContractURI(\"https://gateway.pinata.cloud/ipfs/\");\r\n    _setBaseURI(\"https://gateway.pinata.cloud/ipfs/\");\r\n  }\r\n\r\n  /**\r\n   * @dev Function to change proxyRegistryAddress\r\n   */\r\n  function setProxyRegistryAddress(address proxyRegistryAddress_)\r\n    public\r\n    onlyOwner\r\n  {\r\n    _setProxyRegistryAddress(proxyRegistryAddress_);\r\n  }\r\n\r\n  /**\r\n   * @dev Set the base URI for all token IDs. It is\r\n   * automatically added as a prefix to the value returned in {tokenURI},\r\n   * or to the token ID if {tokenURI} is empty.\r\n   */\r\n  function setBaseURI(string memory baseURI_) public onlyOwner {\r\n    _setBaseURI(baseURI_);\r\n  }\r\n\r\n  /**\r\n   * @dev Set smart contract uri for info.\r\n   */\r\n  function setContractURI(string memory contractURI_) public onlyOwner {\r\n    _setContractURI(contractURI_);\r\n  }\r\n\r\n  function pause() public onlyOwner {\r\n    _pause();\r\n  }\r\n\r\n  function unpause() public onlyOwner {\r\n    _unpause();\r\n  }\r\n}\r\n",
  "sourcePath": "D:\\VSGIT\\slo-nft_predaja\\SmartContracts\\contracts\\SparkNft.sol",
  "compiler": {
    "name": "solc",
    "version": "0.7.6+commit.7338295f.Emscripten.clang"
  },
  "schemaVersion": "3.4.2",
  "updatedAt": "2022-02-11T07:45:21.670Z",
  "devdoc": {
    "kind": "dev",
    "methods": {
      "approve(address,uint256)": {
        "details": "See {IERC721-approve}."
      },
      "balanceOf(address)": {
        "details": "See {IERC721-balanceOf}."
      },
      "baseTokenURI()": {
        "details": "Return base token uri (alias)"
      },
      "baseURI()": {
        "details": "Returns the base URI set via {_setBaseURI}. This will be automatically added as a prefix in {tokenURI} to each token's URI, or to the token ID if no specific URI is set for that token ID."
      },
      "burn(uint256)": {
        "details": "Burns `tokenId`. See {ERC721-_burn}. Requirements: - The caller must own `tokenId` or be an approved operator."
      },
      "contractURI()": {
        "details": "Return smart contract uri for info."
      },
      "getApproved(uint256)": {
        "details": "See {IERC721-getApproved}."
      },
      "getProxyRegistryAddress()": {
        "details": "Return _proxyRegistryAddress value."
      },
      "mintTo(address)": {
        "details": "Mints a token to an address with a tokenURI.",
        "params": {
          "to_": "address of the future owner of the token"
        }
      },
      "mintTo(address,string)": {
        "details": "Mints a token to an address with a metadataURI.",
        "params": {
          "metadataURI_": "IPFS hash of token",
          "to_": "address of the future owner of the token"
        }
      },
      "name()": {
        "details": "See {IERC721Metadata-name}."
      },
      "owner()": {
        "details": "Returns the address of the current owner."
      },
      "ownerOf(uint256)": {
        "details": "See {IERC721-ownerOf}."
      },
      "paused()": {
        "details": "Returns true if the contract is paused, and false otherwise."
      },
      "renounceOwnership()": {
        "details": "Leaves the contract without owner. It will not be possible to call `onlyOwner` functions anymore. Can only be called by the current owner. NOTE: Renouncing ownership will leave the contract without an owner, thereby removing any functionality that is only available to the owner."
      },
      "safeTransferFrom(address,address,uint256)": {
        "details": "See {IERC721-safeTransferFrom}."
      },
      "safeTransferFrom(address,address,uint256,bytes)": {
        "details": "See {IERC721-safeTransferFrom}."
      },
      "setApprovalForAll(address,bool)": {
        "details": "See {IERC721-setApprovalForAll}."
      },
      "setBaseURI(string)": {
        "details": "Set the base URI for all token IDs. It is automatically added as a prefix to the value returned in {tokenURI}, or to the token ID if {tokenURI} is empty."
      },
      "setContractURI(string)": {
        "details": "Set smart contract uri for info."
      },
      "setProxyRegistryAddress(address)": {
        "details": "Function to change proxyRegistryAddress"
      },
      "supportsInterface(bytes4)": {
        "details": "See {IERC165-supportsInterface}. Time complexity O(1), guaranteed to always use less than 30 000 gas."
      },
      "symbol()": {
        "details": "See {IERC721Metadata-symbol}."
      },
      "tokenByIndex(uint256)": {
        "details": "See {IERC721Enumerable-tokenByIndex}."
      },
      "tokenOfOwnerByIndex(address,uint256)": {
        "details": "See {IERC721Enumerable-tokenOfOwnerByIndex}."
      },
      "tokenURI(uint256)": {
        "details": "See {IERC721Metadata-tokenURI}."
      },
      "totalSupply()": {
        "details": "See {IERC721Enumerable-totalSupply}."
      },
      "transferFrom(address,address,uint256)": {
        "details": "See {IERC721-transferFrom}."
      },
      "transferOwnership(address)": {
        "details": "Transfers ownership of the contract to a new account (`newOwner`). Can only be called by the current owner."
      }
    },
    "title": "SparkNft SparkNft - a NFT type contract for Slovenian NFT cards.",
    "version": 1
  },
  "userdoc": {
    "kind": "user",
    "methods": {
      "isApprovedForAll(address,address)": {
        "notice": "Override isApprovedForAll to whitelist user's OpenSea proxy accounts to enable gas-less listings."
      }
    },
    "version": 1
  }
}